{
  "contractName": "Database",
  "abi": [
    {
      "constant": false,
      "inputs": [
        {
          "name": "_account",
          "type": "address"
        },
        {
          "name": "_val",
          "type": "uint256"
        }
      ],
      "name": "addAccountEth",
      "outputs": [],
      "payable": false,
      "stateMutability": "nonpayable",
      "type": "function"
    },
    {
      "constant": true,
      "inputs": [
        {
          "name": "_account",
          "type": "address"
        }
      ],
      "name": "getAccountEth",
      "outputs": [
        {
          "name": "",
          "type": "uint256"
        }
      ],
      "payable": false,
      "stateMutability": "view",
      "type": "function"
    }
  ],
  "bytecode": "0x608060405234801561001057600080fd5b50610230806100206000396000f30060806040526004361061004c576000357c0100000000000000000000000000000000000000000000000000000000900463ffffffff168063872e213e146100515780639c6132ee146100a8575b600080fd5b34801561005d57600080fd5b50610092600480360381019080803573ffffffffffffffffffffffffffffffffffffffff1690602001909291905050506100f5565b6040518082815260200191505060405180910390f35b3480156100b457600080fd5b506100f3600480360381019080803573ffffffffffffffffffffffffffffffffffffffff16906020019092919080359060200190929190505050610178565b005b60008073ffffffffffffffffffffffffffffffffffffffff168273ffffffffffffffffffffffffffffffffffffffff161415151561013257600080fd5b6000808373ffffffffffffffffffffffffffffffffffffffff1673ffffffffffffffffffffffffffffffffffffffff168152602001908152602001600020549050919050565b600073ffffffffffffffffffffffffffffffffffffffff168273ffffffffffffffffffffffffffffffffffffffff16141515156101b457600080fd5b806000808473ffffffffffffffffffffffffffffffffffffffff1673ffffffffffffffffffffffffffffffffffffffff1681526020019081526020016000206000828254019250508190555050505600a165627a7a723058200b610694d1fa9a433c6398daa4b5c0db3dc7f0a95ffb2704ddac2707e3568b3a0029",
  "source": "pragma solidity ^0.4.23;\r\n\r\nimport \"./erc721.sol\";\r\nimport \"./SafeMath.sol\";\r\n\r\ncontract Database {\r\n    mapping (address => uint) private LordToEth;\r\n\r\n    function addAccountEth(address _account, uint _val) external{\r\n        require(_account != address(0));\r\n        LordToEth[_account] += _val;\r\n    }\r\n\r\n    function getAccountEth(address _account) external view returns(uint) {\r\n        require(_account != address(0));\r\n        return LordToEth[_account];\r\n    }\r\n\r\n}",
  "sourcePath": "D:\\BlockChain\\truffle-vue-master\\contracts\\Database.sol",
  "compiler": {
    "name": "solc",
    "version": "0.4.24+commit.e67f0147.Emscripten.clang"
  },
  "schemaVersion": "2.0.1",
  "updatedAt": "2018-07-03T16:57:49.546Z"
}