{
  "contractName": "LordBase",
  "abi": [
    {
      "inputs": [
        {
          "name": "_warriorBaseContract",
          "type": "address"
        },
        {
          "name": "_databaseContract",
          "type": "address"
        }
      ],
      "payable": false,
      "stateMutability": "nonpayable",
      "type": "constructor"
    },
    {
      "anonymous": false,
      "inputs": [
        {
          "indexed": false,
          "name": "attackId",
          "type": "uint256"
        },
        {
          "indexed": false,
          "name": "defenceId",
          "type": "uint256"
        },
        {
          "indexed": false,
          "name": "battleConsequence",
          "type": "uint256"
        }
      ],
      "name": "Battle",
      "type": "event"
    },
    {
      "constant": false,
      "inputs": [
        {
          "name": "_warriorBaseContract",
          "type": "address"
        }
      ],
      "name": "setWarriorBaseContractd",
      "outputs": [],
      "payable": false,
      "stateMutability": "nonpayable",
      "type": "function"
    },
    {
      "constant": false,
      "inputs": [
        {
          "name": "attackId",
          "type": "uint256"
        },
        {
          "name": "defenceId",
          "type": "uint256"
        }
      ],
      "name": "battle",
      "outputs": [
        {
          "name": "",
          "type": "uint256"
        }
      ],
      "payable": false,
      "stateMutability": "nonpayable",
      "type": "function"
    }
  ],
  "bytecode": "0x608060405234801561001057600080fd5b50604051604080610b8d833981018060405281019080805190602001909291908051906020019092919050505081600160006101000a81548173ffffffffffffffffffffffffffffffffffffffff021916908373ffffffffffffffffffffffffffffffffffffffff16021790555080600260006101000a81548173ffffffffffffffffffffffffffffffffffffffff021916908373ffffffffffffffffffffffffffffffffffffffff1602179055505050610abd806100d06000396000f30060806040526004361061004c576000357c0100000000000000000000000000000000000000000000000000000000900463ffffffff1680632a0c522114610051578063f56ea8691461009c575b600080fd5b34801561005d57600080fd5b5061008660048036038101908080359060200190929190803590602001909291905050506100df565b6040518082815260200191505060405180910390f35b3480156100a857600080fd5b506100dd600480360381019080803573ffffffffffffffffffffffffffffffffffffffff1690602001909291905050506109a0565b005b60008060006100ec610a6e565b6100f4610a6e565b6000806000806000600160009054906101000a900473ffffffffffffffffffffffffffffffffffffffff1673ffffffffffffffffffffffffffffffffffffffff1663a5cd761f8d6040518263ffffffff167c010000000000000000000000000000000000000000000000000000000002815260040180828152602001915050602060405180830381600087803b15801561018d57600080fd5b505af11580156101a1573d6000803e3d6000fd5b505050506040513d60208110156101b757600080fd5b81019080805190602001909291905050509850600160009054906101000a900473ffffffffffffffffffffffffffffffffffffffff1673ffffffffffffffffffffffffffffffffffffffff1663a5cd761f8c6040518263ffffffff167c010000000000000000000000000000000000000000000000000000000002815260040180828152602001915050602060405180830381600087803b15801561025b57600080fd5b505af115801561026f573d6000803e3d6000fd5b505050506040513d602081101561028557600080fd5b81019080805190602001909291905050509750600073ffffffffffffffffffffffffffffffffffffffff168973ffffffffffffffffffffffffffffffffffffffff16141515156102d457600080fd5b600073ffffffffffffffffffffffffffffffffffffffff168873ffffffffffffffffffffffffffffffffffffffff161415151561031057600080fd5b600160009054906101000a900473ffffffffffffffffffffffffffffffffffffffff1673ffffffffffffffffffffffffffffffffffffffff1663e4b50cb88d6040518263ffffffff167c01000000000000000000000000000000000000000000000000000000000281526004018082815260200191505060e060405180830381600087803b1580156103a157600080fd5b505af11580156103b5573d6000803e3d6000fd5b505050506040513d601f19601f8201168201806040525060e08110156103da57600080fd5b81019080919050509650600160009054906101000a900473ffffffffffffffffffffffffffffffffffffffff1673ffffffffffffffffffffffffffffffffffffffff1663e4b50cb88c6040518263ffffffff167c01000000000000000000000000000000000000000000000000000000000281526004018082815260200191505060e060405180830381600087803b15801561047557600080fd5b505af1158015610489573d6000803e3d6000fd5b505050506040513d601f19601f8201168201806040525060e08110156104ae57600080fd5b810190809190505095508660066007811015156104c757fe5b602002015194508560066007811015156104dd57fe5b602002015193508385016104ef6109e4565b8115156104f857fe5b0692508483101561072757600160009054906101000a900473ffffffffffffffffffffffffffffffffffffffff1673ffffffffffffffffffffffffffffffffffffffff1663f67a620e8d8d8c8c6040518563ffffffff167c0100000000000000000000000000000000000000000000000000000000028152600401808581526020018481526020018373ffffffffffffffffffffffffffffffffffffffff1673ffffffffffffffffffffffffffffffffffffffff1681526020018273ffffffffffffffffffffffffffffffffffffffff1673ffffffffffffffffffffffffffffffffffffffff168152602001945050505050602060405180830381600087803b15801561060457600080fd5b505af1158015610618573d6000803e3d6000fd5b505050506040513d602081101561062e57600080fd5b81019080805190602001909291905050509050600260009054906101000a900473ffffffffffffffffffffffffffffffffffffffff1673ffffffffffffffffffffffffffffffffffffffff16639c6132ee8a836040518363ffffffff167c0100000000000000000000000000000000000000000000000000000000028152600401808373ffffffffffffffffffffffffffffffffffffffff1673ffffffffffffffffffffffffffffffffffffffff16815260200182815260200192505050600060405180830381600087803b15801561070657600080fd5b505af115801561071a573d6000803e3d6000fd5b5050505060019150610947565b600160009054906101000a900473ffffffffffffffffffffffffffffffffffffffff1673ffffffffffffffffffffffffffffffffffffffff1663f67a620e8c8e8b8d6040518563ffffffff167c0100000000000000000000000000000000000000000000000000000000028152600401808581526020018481526020018373ffffffffffffffffffffffffffffffffffffffff1673ffffffffffffffffffffffffffffffffffffffff1681526020018273ffffffffffffffffffffffffffffffffffffffff1673ffffffffffffffffffffffffffffffffffffffff168152602001945050505050602060405180830381600087803b15801561082857600080fd5b505af115801561083c573d6000803e3d6000fd5b505050506040513d602081101561085257600080fd5b81019080805190602001909291905050509050600260009054906101000a900473ffffffffffffffffffffffffffffffffffffffff1673ffffffffffffffffffffffffffffffffffffffff16639c6132ee89836040518363ffffffff167c0100000000000000000000000000000000000000000000000000000000028152600401808373ffffffffffffffffffffffffffffffffffffffff1673ffffffffffffffffffffffffffffffffffffffff16815260200182815260200192505050600060405180830381600087803b15801561092a57600080fd5b505af115801561093e573d6000803e3d6000fd5b50505050600091505b7ffc209c65e3c2cec1e2407f1ead53891789a981b717512caf168baa47cf516aab8c8c8460405180848152602001838152602001828152602001935050505060405180910390a181995050505050505050505092915050565b80600160006101000a81548173ffffffffffffffffffffffffffffffffffffffff021916908373ffffffffffffffffffffffffffffffffffffffff16021790555050565b60008054600143034041446040518085815260200184600019166000191681526020018373ffffffffffffffffffffffffffffffffffffffff1673ffffffffffffffffffffffffffffffffffffffff166c01000000000000000000000000028152601401828152602001945050505050604051809103902060019004600081905550600054905090565b60e0604051908101604052806007906020820280388339808201915050905050905600a165627a7a72305820204f999a441e870ace038485b37352497fdab4a945364024fa10a64acfff451c0029",
  "source": "pragma solidity ^0.4.23;\r\n\r\nimport \"./erc721.sol\";\r\nimport \"./SafeMath.sol\";\r\nimport \"./Random.sol\";\r\nimport \"./WarriorBase.sol\";\r\nimport \"./Database.sol\";\r\n\r\ncontract LordBase is Random{\r\n\r\n    using SafeMath for uint256;\r\n    using SafeMath for uint64;\r\n\r\n    event Battle(uint attackId, uint defenceId, uint battleConsequence);\r\n    \r\n    WarriorBase private warriorBaseContract;\r\n    Database private databaseContract;\r\n    \r\n    constructor(\r\n        address _warriorBaseContract,\r\n        address _databaseContract) public {\r\n        warriorBaseContract = WarriorBase(_warriorBaseContract);\r\n        databaseContract = Database(_databaseContract);\r\n    }\r\n\r\n    function setWarriorBaseContractd(address _warriorBaseContract) external {\r\n        warriorBaseContract = WarriorBase(_warriorBaseContract);\r\n    }\r\n \r\n    function battle(\r\n        uint attackId,\r\n        uint defenceId) external returns(uint){\r\n        \r\n        address attackAddr = warriorBaseContract.getTokenOwner(attackId);\r\n        address defenceAddr = warriorBaseContract.getTokenOwner(defenceId);\r\n        \r\n\r\n        require(attackAddr != address(0));\r\n        require(defenceAddr != address(0));\r\n\r\n        uint[7] memory attackToken = warriorBaseContract.getToken(attackId);\r\n        uint[7] memory defenceToken = warriorBaseContract.getToken(defenceId);\r\n        uint attackCE = attackToken[6];\r\n        uint defenceCE = defenceToken[6];\r\n        uint dice = _rand() % (attackCE + defenceCE);\r\n        uint battleConsequence;\r\n\r\n        uint valToTransfer;\r\n        \r\n        if (dice < attackCE) {\r\n            valToTransfer = warriorBaseContract.consequence(attackId, defenceId, attackAddr, defenceAddr);\r\n            databaseContract.addAccountEth(attackAddr, valToTransfer);\r\n            \r\n            battleConsequence =  1;\r\n        } else {\r\n            valToTransfer = warriorBaseContract.consequence(defenceId, attackId, defenceAddr, attackAddr);\r\n            databaseContract.addAccountEth(defenceAddr, valToTransfer);\r\n            \r\n            battleConsequence =  0;\r\n        }\r\n\r\n        emit Battle(attackId, defenceId, battleConsequence);\r\n        return battleConsequence;\r\n    }\r\n\r\n}",
  "sourcePath": "D:\\BlockChain\\truffle-vue-master\\contracts\\LordBase.sol",
  "compiler": {
    "name": "solc",
    "version": "0.4.24+commit.e67f0147.Emscripten.clang"
  },
  "schemaVersion": "2.0.1",
  "updatedAt": "2018-07-03T16:57:49.549Z"
}