{
  "contractName": "WarriorBase",
  "abi": [
    {
      "constant": true,
      "inputs": [],
      "name": "name",
      "outputs": [
        {
          "name": "",
          "type": "string"
        }
      ],
      "payable": false,
      "stateMutability": "view",
      "type": "function"
    },
    {
      "constant": true,
      "inputs": [],
      "name": "symbol",
      "outputs": [
        {
          "name": "",
          "type": "string"
        }
      ],
      "payable": false,
      "stateMutability": "view",
      "type": "function"
    },
    {
      "inputs": [
        {
          "name": "_randomContract",
          "type": "address"
        },
        {
          "name": "_databaseContract",
          "type": "address"
        }
      ],
      "payable": false,
      "stateMutability": "nonpayable",
      "type": "constructor"
    },
    {
      "anonymous": false,
      "inputs": [
        {
          "indexed": true,
          "name": "from",
          "type": "address"
        },
        {
          "indexed": true,
          "name": "to",
          "type": "address"
        },
        {
          "indexed": false,
          "name": "tokenId",
          "type": "uint256"
        }
      ],
      "name": "Transfer",
      "type": "event"
    },
    {
      "anonymous": false,
      "inputs": [
        {
          "indexed": false,
          "name": "_value",
          "type": "uint256"
        }
      ],
      "name": "NewFund",
      "type": "event"
    },
    {
      "anonymous": false,
      "inputs": [
        {
          "indexed": false,
          "name": "_owner",
          "type": "address"
        },
        {
          "indexed": false,
          "name": "_val",
          "type": "uint256"
        }
      ],
      "name": "CreateWarrior",
      "type": "event"
    },
    {
      "anonymous": false,
      "inputs": [
        {
          "indexed": false,
          "name": "winnerId",
          "type": "uint256"
        },
        {
          "indexed": false,
          "name": "loserId",
          "type": "uint256"
        },
        {
          "indexed": false,
          "name": "winnerAddr",
          "type": "address"
        },
        {
          "indexed": false,
          "name": "loserAddr",
          "type": "address"
        },
        {
          "indexed": false,
          "name": "valToTransfer",
          "type": "uint256"
        },
        {
          "indexed": false,
          "name": "ceToTransfer",
          "type": "uint256"
        }
      ],
      "name": "Consequence",
      "type": "event"
    },
    {
      "anonymous": false,
      "inputs": [
        {
          "indexed": true,
          "name": "owner",
          "type": "address"
        },
        {
          "indexed": true,
          "name": "approved",
          "type": "address"
        },
        {
          "indexed": false,
          "name": "tokenId",
          "type": "uint256"
        }
      ],
      "name": "Approval",
      "type": "event"
    },
    {
      "constant": false,
      "inputs": [],
      "name": "adoptLvOne",
      "outputs": [
        {
          "name": "",
          "type": "uint256"
        }
      ],
      "payable": true,
      "stateMutability": "payable",
      "type": "function"
    },
    {
      "constant": false,
      "inputs": [],
      "name": "adoptLvTwo",
      "outputs": [
        {
          "name": "",
          "type": "uint256"
        }
      ],
      "payable": true,
      "stateMutability": "payable",
      "type": "function"
    },
    {
      "constant": false,
      "inputs": [],
      "name": "adoptLvThree",
      "outputs": [
        {
          "name": "",
          "type": "uint256"
        }
      ],
      "payable": true,
      "stateMutability": "payable",
      "type": "function"
    },
    {
      "constant": false,
      "inputs": [],
      "name": "adoptLvFour",
      "outputs": [
        {
          "name": "",
          "type": "uint256"
        }
      ],
      "payable": true,
      "stateMutability": "payable",
      "type": "function"
    },
    {
      "constant": false,
      "inputs": [
        {
          "name": "_randomContract",
          "type": "address"
        }
      ],
      "name": "setRandomAddr",
      "outputs": [],
      "payable": false,
      "stateMutability": "nonpayable",
      "type": "function"
    },
    {
      "constant": true,
      "inputs": [],
      "name": "getTokenNum",
      "outputs": [
        {
          "name": "",
          "type": "uint256"
        }
      ],
      "payable": false,
      "stateMutability": "view",
      "type": "function"
    },
    {
      "constant": true,
      "inputs": [
        {
          "name": "_id",
          "type": "uint256"
        }
      ],
      "name": "getTokenOwner",
      "outputs": [
        {
          "name": "",
          "type": "address"
        }
      ],
      "payable": false,
      "stateMutability": "view",
      "type": "function"
    },
    {
      "constant": true,
      "inputs": [
        {
          "name": "_id",
          "type": "uint256"
        }
      ],
      "name": "getToken",
      "outputs": [
        {
          "name": "datas",
          "type": "uint256[7]"
        }
      ],
      "payable": false,
      "stateMutability": "view",
      "type": "function"
    },
    {
      "constant": true,
      "inputs": [
        {
          "name": "_owner",
          "type": "address"
        }
      ],
      "name": "getOwnTokens",
      "outputs": [
        {
          "name": "tokens",
          "type": "uint256[]"
        }
      ],
      "payable": false,
      "stateMutability": "view",
      "type": "function"
    },
    {
      "constant": true,
      "inputs": [
        {
          "name": "_owner",
          "type": "address"
        }
      ],
      "name": "getEnemyTokens",
      "outputs": [
        {
          "name": "tokens",
          "type": "uint256[]"
        }
      ],
      "payable": false,
      "stateMutability": "view",
      "type": "function"
    },
    {
      "constant": false,
      "inputs": [
        {
          "name": "winnerId",
          "type": "uint256"
        },
        {
          "name": "loserId",
          "type": "uint256"
        },
        {
          "name": "winnerAddr",
          "type": "address"
        },
        {
          "name": "loserAddr",
          "type": "address"
        }
      ],
      "name": "consequence",
      "outputs": [
        {
          "name": "",
          "type": "uint256"
        }
      ],
      "payable": false,
      "stateMutability": "nonpayable",
      "type": "function"
    },
    {
      "constant": false,
      "inputs": [
        {
          "name": "_id",
          "type": "uint256"
        }
      ],
      "name": "feedWarrior",
      "outputs": [
        {
          "name": "",
          "type": "uint256"
        }
      ],
      "payable": true,
      "stateMutability": "payable",
      "type": "function"
    },
    {
      "constant": false,
      "inputs": [],
      "name": "addFund",
      "outputs": [
        {
          "name": "",
          "type": "uint256"
        }
      ],
      "payable": true,
      "stateMutability": "payable",
      "type": "function"
    },
    {
      "constant": false,
      "inputs": [],
      "name": "getBalance",
      "outputs": [
        {
          "name": "",
          "type": "uint256"
        }
      ],
      "payable": false,
      "stateMutability": "nonpayable",
      "type": "function"
    },
    {
      "constant": false,
      "inputs": [
        {
          "name": "_to",
          "type": "address"
        },
        {
          "name": "_tokenId",
          "type": "uint256"
        }
      ],
      "name": "transfer",
      "outputs": [],
      "payable": false,
      "stateMutability": "nonpayable",
      "type": "function"
    },
    {
      "constant": false,
      "inputs": [
        {
          "name": "_from",
          "type": "address"
        },
        {
          "name": "_to",
          "type": "address"
        },
        {
          "name": "_tokenId",
          "type": "uint256"
        }
      ],
      "name": "transferFrom",
      "outputs": [],
      "payable": false,
      "stateMutability": "nonpayable",
      "type": "function"
    },
    {
      "constant": true,
      "inputs": [],
      "name": "totalSupply",
      "outputs": [
        {
          "name": "",
          "type": "uint256"
        }
      ],
      "payable": false,
      "stateMutability": "view",
      "type": "function"
    },
    {
      "constant": true,
      "inputs": [
        {
          "name": "_owner",
          "type": "address"
        }
      ],
      "name": "balanceOf",
      "outputs": [
        {
          "name": "balance",
          "type": "uint256"
        }
      ],
      "payable": false,
      "stateMutability": "view",
      "type": "function"
    },
    {
      "constant": true,
      "inputs": [
        {
          "name": "_tokenId",
          "type": "uint256"
        }
      ],
      "name": "ownerOf",
      "outputs": [
        {
          "name": "_owner",
          "type": "address"
        }
      ],
      "payable": false,
      "stateMutability": "view",
      "type": "function"
    },
    {
      "constant": false,
      "inputs": [
        {
          "name": "_tokenId",
          "type": "uint256"
        }
      ],
      "name": "takeOwnership",
      "outputs": [],
      "payable": false,
      "stateMutability": "nonpayable",
      "type": "function"
    },
    {
      "constant": false,
      "inputs": [
        {
          "name": "_to",
          "type": "address"
        },
        {
          "name": "_tokenId",
          "type": "uint256"
        }
      ],
      "name": "approve",
      "outputs": [],
      "payable": false,
      "stateMutability": "nonpayable",
      "type": "function"
    },
    {
      "constant": false,
      "inputs": [
        {
          "name": "_tokenId",
          "type": "uint256"
        }
      ],
      "name": "destroyWeaponById",
      "outputs": [],
      "payable": false,
      "stateMutability": "nonpayable",
      "type": "function"
    },
    {
      "constant": true,
      "inputs": [
        {
          "name": "_interfaceId",
          "type": "bytes4"
        }
      ],
      "name": "supportsInterface",
      "outputs": [
        {
          "name": "",
          "type": "bool"
        }
      ],
      "payable": false,
      "stateMutability": "view",
      "type": "function"
    }
  ],
  "bytecode": "0x60806040523480156200001157600080fd5b50604051604080620036988339810180604052810190808051906020019092919080519060200190929190505050600080836000806101000a81548173ffffffffffffffffffffffffffffffffffffffff021916908373ffffffffffffffffffffffffffffffffffffffff16021790555082600160006101000a81548173ffffffffffffffffffffffffffffffffffffffff021916908373ffffffffffffffffffffffffffffffffffffffff1602179055506001600781818054905001915081620000dd919062000b51565b506007805490509150600160078181805490500191508162000100919062000b51565b506007828154811015156200011157fe5b90600052602060002090600702019050662386f26fc1000081600001819055506000816001018190555060008160020181905550600081600301819055506007816004018190555060008160050181905550600a81600601819055506200018a600033846200072e640100000000026401000000009004565b600160009054906101000a900473ffffffffffffffffffffffffffffffffffffffff1673ffffffffffffffffffffffffffffffffffffffff16639c6132ee3383600001546040518363ffffffff167c0100000000000000000000000000000000000000000000000000000000028152600401808373ffffffffffffffffffffffffffffffffffffffff1673ffffffffffffffffffffffffffffffffffffffff16815260200182815260200192505050600060405180830381600087803b1580156200025457600080fd5b505af115801562000269573d6000803e3d6000fd5b50505050600780549050915060016007818180549050019150816200028f919062000b51565b50600782815481101515620002a057fe5b906000526020600020906007020190506005662386f26fc100000281600001819055506000816001018190555060008160020181905550600081600301819055506008816004018190555060008160050181905550603281600601819055506200031c600033846200072e640100000000026401000000009004565b600160009054906101000a900473ffffffffffffffffffffffffffffffffffffffff1673ffffffffffffffffffffffffffffffffffffffff16639c6132ee3383600001546040518363ffffffff167c0100000000000000000000000000000000000000000000000000000000028152600401808373ffffffffffffffffffffffffffffffffffffffff1673ffffffffffffffffffffffffffffffffffffffff16815260200182815260200192505050600060405180830381600087803b158015620003e657600080fd5b505af1158015620003fb573d6000803e3d6000fd5b505050506007805490509150600160078181805490500191508162000421919062000b51565b506007828154811015156200043257fe5b90600052602060002090600702019050600a662386f26fc10000028160000181905550600081600101819055506000816002018190555060008160030181905550600981600401819055506000816005018190555060648160060181905550620004ae600033846200072e640100000000026401000000009004565b600160009054906101000a900473ffffffffffffffffffffffffffffffffffffffff1673ffffffffffffffffffffffffffffffffffffffff16639c6132ee3383600001546040518363ffffffff167c0100000000000000000000000000000000000000000000000000000000028152600401808373ffffffffffffffffffffffffffffffffffffffff1673ffffffffffffffffffffffffffffffffffffffff16815260200182815260200192505050600060405180830381600087803b1580156200057857600080fd5b505af11580156200058d573d6000803e3d6000fd5b5050505060078054905091506001600781818054905001915081620005b3919062000b51565b50600782815481101515620005c457fe5b906000526020600020906007020190506032662386f26fc10000028160000181905550600081600101819055506000816002018190555060008160030181905550600a8160040181905550600081600501819055506101f4816006018190555062000641600033846200072e640100000000026401000000009004565b600160009054906101000a900473ffffffffffffffffffffffffffffffffffffffff1673ffffffffffffffffffffffffffffffffffffffff16639c6132ee3383600001546040518363ffffffff167c0100000000000000000000000000000000000000000000000000000000028152600401808373ffffffffffffffffffffffffffffffffffffffff1673ffffffffffffffffffffffffffffffffffffffff16815260200182815260200192505050600060405180830381600087803b1580156200070b57600080fd5b505af115801562000720573d6000803e3d6000fd5b505050505050505062000be0565b60008060008073ffffffffffffffffffffffffffffffffffffffff168673ffffffffffffffffffffffffffffffffffffffff161415156200087d5760066000858152602001908152602001600020549250600560008773ffffffffffffffffffffffffffffffffffffffff1673ffffffffffffffffffffffffffffffffffffffff1681526020019081526020016000209150838284815481101515620007d057fe5b9060005260206000200154141515620007e857600080fd5b60018280549050038314151562000853578160018380549050038154811015156200080f57fe5b906000526020600020015490508082848154811015156200082c57fe5b90600052602060002001819055508260066000838152602001908152602001600020819055505b6200087b6001838054905062000b1864010000000002620029b7179091906401000000009004565b505b846003600086815260200190815260200160002060006101000a81548173ffffffffffffffffffffffffffffffffffffffff021916908373ffffffffffffffffffffffffffffffffffffffff1602179055506000600560008773ffffffffffffffffffffffffffffffffffffffff1673ffffffffffffffffffffffffffffffffffffffff16815260200190815260200160002080549050141562000961576000600460008773ffffffffffffffffffffffffffffffffffffffff1673ffffffffffffffffffffffffffffffffffffffff168152602001908152602001600020819055505b600560008673ffffffffffffffffffffffffffffffffffffffff1673ffffffffffffffffffffffffffffffffffffffff16815260200190815260200160002084908060018154018082558091505090600182039060005260206000200160009091929091909150555062000a2d6001600460008873ffffffffffffffffffffffffffffffffffffffff1673ffffffffffffffffffffffffffffffffffffffff1681526020019081526020016000205462000b32640100000000026200297e179091906401000000009004565b5062000a946001600560008873ffffffffffffffffffffffffffffffffffffffff1673ffffffffffffffffffffffffffffffffffffffff1681526020019081526020016000208054905062000b1864010000000002620029b7179091906401000000009004565b60066000868152602001908152602001600020819055508473ffffffffffffffffffffffffffffffffffffffff168673ffffffffffffffffffffffffffffffffffffffff167fddf252ad1be2c89b69c2b068fc378daa952ba7f163c4a11628f55a4df523b3ef866040518082815260200191505060405180910390a3505050505050565b600082821115151562000b2757fe5b818303905092915050565b600080828401905083811015151562000b4757fe5b8091505092915050565b81548183558181111562000b815760070281600702836000526020600020918201910162000b80919062000b86565b5b505050565b62000bdd91905b8082111562000bd9576000808201600090556001820160009055600282016000905560038201600090556004820160009055600582016000905560068201600090555060070162000b8d565b5090565b90565b612aa88062000bf06000396000f300608060405260043610610149576000357c0100000000000000000000000000000000000000000000000000000000900463ffffffff16806301ffc9a71461014e57806306fdde03146101b2578063095ea7b31461024257806312065fe01461028f57806318160ddd146102ba578063188d3863146102e55780631e4cb45b1461030357806323b872dd1461033757806326fe2cfe146103a45780633a562b78146103c25780633acbc9991461045a5780636352211e146104875780636635a942146104f457806370a08231146105125780638f1db2ad1461056957806395b40de71461059457806395d89b41146105b2578063a2f09dfa14610642578063a5cd761f14610660578063a9059cbb146106cd578063b2e6ceeb1461071a578063b33ccdde14610747578063c6fc5da91461078a578063e4b50cb814610822578063f67a620e1461088b575b600080fd5b34801561015a57600080fd5b5061019860048036038101908080357bffffffffffffffffffffffffffffffffffffffffffffffffffffffff19169060200190929190505050610916565b604051808215151515815260200191505060405180910390f35b3480156101be57600080fd5b506101c7610a4a565b6040518080602001828103825283818151815260200191508051906020019080838360005b838110156102075780820151818401526020810190506101ec565b50505050905090810190601f1680156102345780820380516001836020036101000a031916815260200191505b509250505060405180910390f35b34801561024e57600080fd5b5061028d600480360381019080803573ffffffffffffffffffffffffffffffffffffffff16906020019092919080359060200190929190505050610a83565b005b34801561029b57600080fd5b506102a4610bab565b6040518082815260200191505060405180910390f35b3480156102c657600080fd5b506102cf610bca565b6040518082815260200191505060405180910390f35b6102ed610bda565b6040518082815260200191505060405180910390f35b61032160048036038101908080359060200190929190505050610e13565b6040518082815260200191505060405180910390f35b34801561034357600080fd5b506103a2600480360381019080803573ffffffffffffffffffffffffffffffffffffffff169060200190929190803573ffffffffffffffffffffffffffffffffffffffff16906020019092919080359060200190929190505050611092565b005b6103ac61115b565b6040518082815260200191505060405180910390f35b3480156103ce57600080fd5b50610403600480360381019080803573ffffffffffffffffffffffffffffffffffffffff169060200190929190505050611392565b6040518080602001828103825283818151815260200191508051906020019060200280838360005b8381101561044657808201518184015260208101905061042b565b505050509050019250505060405180910390f35b34801561046657600080fd5b50610485600480360381019080803590602001909291905050506114ee565b005b34801561049357600080fd5b506104b26004803603810190808035906020019092919050505061155e565b604051808273ffffffffffffffffffffffffffffffffffffffff1673ffffffffffffffffffffffffffffffffffffffff16815260200191505060405180910390f35b6104fc6115d7565b6040518082815260200191505060405180910390f35b34801561051e57600080fd5b50610553600480360381019080803573ffffffffffffffffffffffffffffffffffffffff16906020019092919050505061180e565b6040518082815260200191505060405180910390f35b34801561057557600080fd5b5061057e611857565b6040518082815260200191505060405180910390f35b61059c611867565b6040518082815260200191505060405180910390f35b3480156105be57600080fd5b506105c7611a9f565b6040518080602001828103825283818151815260200191508051906020019080838360005b838110156106075780820151818401526020810190506105ec565b50505050905090810190601f1680156106345780820380516001836020036101000a031916815260200191505b509250505060405180910390f35b61064a611ad8565b6040518082815260200191505060405180910390f35b34801561066c57600080fd5b5061068b60048036038101908080359060200190929190505050611b53565b604051808273ffffffffffffffffffffffffffffffffffffffff1673ffffffffffffffffffffffffffffffffffffffff16815260200191505060405180910390f35b3480156106d957600080fd5b50610718600480360381019080803573ffffffffffffffffffffffffffffffffffffffff16906020019092919080359060200190929190505050611c91565b005b34801561072657600080fd5b5061074560048036038101908080359060200190929190505050611d33565b005b34801561075357600080fd5b50610788600480360381019080803573ffffffffffffffffffffffffffffffffffffffff169060200190929190505050611dbc565b005b34801561079657600080fd5b506107cb600480360381019080803573ffffffffffffffffffffffffffffffffffffffff169060200190929190505050611dff565b6040518080602001828103825283818151815260200191508051906020019060200280838360005b8381101561080e5780820151818401526020810190506107f3565b505050509050019250505060405180910390f35b34801561082e57600080fd5b5061084d60048036038101908080359060200190929190505050611f77565b6040518082600760200280838360005b8381101561087857808201518184015260208101905061085d565b5050505090500191505060405180910390f35b34801561089757600080fd5b506109006004803603810190808035906020019092919080359060200190929190803573ffffffffffffffffffffffffffffffffffffffff169060200190929190803573ffffffffffffffffffffffffffffffffffffffff169060200190929190505050612103565b6040518082815260200191505060405180910390f35b60006301ffc9a77c010000000000000000000000000000000000000000000000000000000002827bffffffffffffffffffffffffffffffffffffffffffffffffffffffff191614806109a957506380ac58cd7c010000000000000000000000000000000000000000000000000000000002827bffffffffffffffffffffffffffffffffffffffffffffffffffffffff1916145b806109f55750638153916a7c010000000000000000000000000000000000000000000000000000000002827bffffffffffffffffffffffffffffffffffffffffffffffffffffffff1916145b8015610a43575063ffffffff7c010000000000000000000000000000000000000000000000000000000002827bffffffffffffffffffffffffffffffffffffffffffffffffffffffff191614155b9050919050565b6040805190810160405280600e81526020017f5370617274617857617272696f7200000000000000000000000000000000000081525081565b6003600082815260200190815260200160002060009054906101000a900473ffffffffffffffffffffffffffffffffffffffff1673ffffffffffffffffffffffffffffffffffffffff163373ffffffffffffffffffffffffffffffffffffffff16141515610af057600080fd5b816002600083815260200190815260200160002060006101000a81548173ffffffffffffffffffffffffffffffffffffffff021916908373ffffffffffffffffffffffffffffffffffffffff1602179055508173ffffffffffffffffffffffffffffffffffffffff163373ffffffffffffffffffffffffffffffffffffffff167f8c5be1e5ebec7d5bd14f71427d1e84f3dd0314c0f7b2291e5b200ac8c7c3b925836040518082815260200191505060405180910390a35050565b60003073ffffffffffffffffffffffffffffffffffffffff1631905090565b6000600160078054905003905090565b60008060008073ffffffffffffffffffffffffffffffffffffffff163373ffffffffffffffffffffffffffffffffffffffff1614151515610c1a57600080fd5b6706f05b59d3b200003410151515610c3157600080fd5b60078054905091506001600781818054905001915081610c5191906129d0565b50600782815481101515610c6157fe5b9060005260206000209060070201905034816000018190555060008160010181905550600081600201819055506000816003018190555060008160040181905550600081600501819055506101f48160060181905550610cc3600033846125cb565b600160009054906101000a900473ffffffffffffffffffffffffffffffffffffffff1673ffffffffffffffffffffffffffffffffffffffff16639c6132ee33346040518363ffffffff167c0100000000000000000000000000000000000000000000000000000000028152600401808373ffffffffffffffffffffffffffffffffffffffff1673ffffffffffffffffffffffffffffffffffffffff16815260200182815260200192505050600060405180830381600087803b158015610d8857600080fd5b505af1158015610d9c573d6000803e3d6000fd5b505050507f7e4275bbcbe14b05d6b0223a2076df9f61621f8fb9f09d9f15a74a4ab7243eb93334604051808373ffffffffffffffffffffffffffffffffffffffff1673ffffffffffffffffffffffffffffffffffffffff1681526020018281526020019250505060405180910390a1819250505090565b60008160018110158015610e2c57506007805490508111155b1515610e3757600080fd5b600073ffffffffffffffffffffffffffffffffffffffff166003600083815260200190815260200160002060009054906101000a900473ffffffffffffffffffffffffffffffffffffffff1673ffffffffffffffffffffffffffffffffffffffff1614151515610ea657600080fd5b3373ffffffffffffffffffffffffffffffffffffffff166003600085815260200190815260200160002060009054906101000a900473ffffffffffffffffffffffffffffffffffffffff1673ffffffffffffffffffffffffffffffffffffffff16141515610f1357600080fd5b610f4634600785815481101515610f2657fe5b90600052602060002090600702016000015461297e90919063ffffffff16565b50600160009054906101000a900473ffffffffffffffffffffffffffffffffffffffff1673ffffffffffffffffffffffffffffffffffffffff16639c6132ee33346040518363ffffffff167c0100000000000000000000000000000000000000000000000000000000028152600401808373ffffffffffffffffffffffffffffffffffffffff1673ffffffffffffffffffffffffffffffffffffffff16815260200182815260200192505050600060405180830381600087803b15801561100c57600080fd5b505af1158015611020573d6000803e3d6000fd5b505050507fbe1e4b1ad5d83f75925e2f00ab046fbab2ee90d0dbdf7f2049d037a48ada09f33073ffffffffffffffffffffffffffffffffffffffff16316040518082815260200191505060405180910390a13073ffffffffffffffffffffffffffffffffffffffff1631915050919050565b600073ffffffffffffffffffffffffffffffffffffffff168273ffffffffffffffffffffffffffffffffffffffff16141515156110ce57600080fd5b3073ffffffffffffffffffffffffffffffffffffffff168273ffffffffffffffffffffffffffffffffffffffff161415151561110957600080fd5b8273ffffffffffffffffffffffffffffffffffffffff166111298261155e565b73ffffffffffffffffffffffffffffffffffffffff1614151561114b57600080fd5b6111568383836125cb565b505050565b60008060008073ffffffffffffffffffffffffffffffffffffffff163373ffffffffffffffffffffffffffffffffffffffff161415151561119b57600080fd5b66b1a2bc2ec5000034101515156111b157600080fd5b600780549050915060016007818180549050019150816111d191906129d0565b506007828154811015156111e157fe5b90600052602060002090600702019050348160000181905550600081600101819055506000816002018190555060008160030181905550600081600401819055506000816005018190555060328160060181905550611242600033846125cb565b600160009054906101000a900473ffffffffffffffffffffffffffffffffffffffff1673ffffffffffffffffffffffffffffffffffffffff16639c6132ee33346040518363ffffffff167c0100000000000000000000000000000000000000000000000000000000028152600401808373ffffffffffffffffffffffffffffffffffffffff1673ffffffffffffffffffffffffffffffffffffffff16815260200182815260200192505050600060405180830381600087803b15801561130757600080fd5b505af115801561131b573d6000803e3d6000fd5b505050507f7e4275bbcbe14b05d6b0223a2076df9f61621f8fb9f09d9f15a74a4ab7243eb93334604051808373ffffffffffffffffffffffffffffffffffffffff1673ffffffffffffffffffffffffffffffffffffffff1681526020018281526020019250505060405180910390a1819250505090565b606080600080600073ffffffffffffffffffffffffffffffffffffffff168573ffffffffffffffffffffffffffffffffffffffff16141515156113d457600080fd5b600560008673ffffffffffffffffffffffffffffffffffffffff1673ffffffffffffffffffffffffffffffffffffffff16815260200190815260200160002080548060200260200160405190810160405280929190818152602001828054801561145d57602002820191906000526020600020905b815481526020019060010190808311611449575b5050505050925082519150816040519080825280602002602001820160405280156114975781602001602082028038833980820191505090505b509350600090505b818110156114e65782818151811015156114b557fe5b9060200190602002015184828151811015156114cd57fe5b906020019060200201818152505080600101905061149f565b505050919050565b6003600082815260200190815260200160002060009054906101000a900473ffffffffffffffffffffffffffffffffffffffff1673ffffffffffffffffffffffffffffffffffffffff163373ffffffffffffffffffffffffffffffffffffffff1614151561155b57600080fd5b50565b60006003600083815260200190815260200160002060009054906101000a900473ffffffffffffffffffffffffffffffffffffffff169050600073ffffffffffffffffffffffffffffffffffffffff168173ffffffffffffffffffffffffffffffffffffffff16141515156115d257600080fd5b919050565b60008060008073ffffffffffffffffffffffffffffffffffffffff163373ffffffffffffffffffffffffffffffffffffffff161415151561161757600080fd5b662386f26fc10000341015151561162d57600080fd5b6007805490509150600160078181805490500191508161164d91906129d0565b5060078281548110151561165d57fe5b906000526020600020906007020190503481600001819055506000816001018190555060008160020181905550600081600301819055506000816004018190555060008160050181905550600a81600601819055506116be600033846125cb565b600160009054906101000a900473ffffffffffffffffffffffffffffffffffffffff1673ffffffffffffffffffffffffffffffffffffffff16639c6132ee33346040518363ffffffff167c0100000000000000000000000000000000000000000000000000000000028152600401808373ffffffffffffffffffffffffffffffffffffffff1673ffffffffffffffffffffffffffffffffffffffff16815260200182815260200192505050600060405180830381600087803b15801561178357600080fd5b505af1158015611797573d6000803e3d6000fd5b505050507f7e4275bbcbe14b05d6b0223a2076df9f61621f8fb9f09d9f15a74a4ab7243eb93334604051808373ffffffffffffffffffffffffffffffffffffffff1673ffffffffffffffffffffffffffffffffffffffff1681526020018281526020019250505060405180910390a1819250505090565b6000600460008373ffffffffffffffffffffffffffffffffffffffff1673ffffffffffffffffffffffffffffffffffffffff168152602001908152602001600020549050919050565b6000600160078054905003905090565b60008060008073ffffffffffffffffffffffffffffffffffffffff163373ffffffffffffffffffffffffffffffffffffffff16141515156118a757600080fd5b67016345785d8a000034101515156118be57600080fd5b600780549050915060016007818180549050019150816118de91906129d0565b506007828154811015156118ee57fe5b9060005260206000209060070201905034816000018190555060008160010181905550600081600201819055506000816003018190555060008160040181905550600081600501819055506064816006018190555061194f600033846125cb565b600160009054906101000a900473ffffffffffffffffffffffffffffffffffffffff1673ffffffffffffffffffffffffffffffffffffffff16639c6132ee33346040518363ffffffff167c0100000000000000000000000000000000000000000000000000000000028152600401808373ffffffffffffffffffffffffffffffffffffffff1673ffffffffffffffffffffffffffffffffffffffff16815260200182815260200192505050600060405180830381600087803b158015611a1457600080fd5b505af1158015611a28573d6000803e3d6000fd5b505050507f7e4275bbcbe14b05d6b0223a2076df9f61621f8fb9f09d9f15a74a4ab7243eb93334604051808373ffffffffffffffffffffffffffffffffffffffff1673ffffffffffffffffffffffffffffffffffffffff1681526020018281526020019250505060405180910390a1819250505090565b6040805190810160405280600281526020017f535700000000000000000000000000000000000000000000000000000000000081525081565b60008034111515611ae857600080fd5b7fbe1e4b1ad5d83f75925e2f00ab046fbab2ee90d0dbdf7f2049d037a48ada09f33073ffffffffffffffffffffffffffffffffffffffff16316040518082815260200191505060405180910390a13073ffffffffffffffffffffffffffffffffffffffff1631905090565b60008160018110158015611b6c57506007805490508111155b1515611b7757600080fd5b600073ffffffffffffffffffffffffffffffffffffffff166003600083815260200190815260200160002060009054906101000a900473ffffffffffffffffffffffffffffffffffffffff1673ffffffffffffffffffffffffffffffffffffffff1614151515611be657600080fd5b600073ffffffffffffffffffffffffffffffffffffffff166003600085815260200190815260200160002060009054906101000a900473ffffffffffffffffffffffffffffffffffffffff1673ffffffffffffffffffffffffffffffffffffffff1614151515611c5557600080fd5b6003600084815260200190815260200160002060009054906101000a900473ffffffffffffffffffffffffffffffffffffffff16915050919050565b6003600082815260200190815260200160002060009054906101000a900473ffffffffffffffffffffffffffffffffffffffff1673ffffffffffffffffffffffffffffffffffffffff163373ffffffffffffffffffffffffffffffffffffffff16141515611cfe57600080fd5b60008273ffffffffffffffffffffffffffffffffffffffff1614151515611d2457600080fd5b611d2f3383836125cb565b5050565b60003373ffffffffffffffffffffffffffffffffffffffff166002600084815260200190815260200160002060009054906101000a900473ffffffffffffffffffffffffffffffffffffffff1673ffffffffffffffffffffffffffffffffffffffff16141515611da257600080fd5b611dab8261155e565b9050611db88133846125cb565b5050565b806000806101000a81548173ffffffffffffffffffffffffffffffffffffffff021916908373ffffffffffffffffffffffffffffffffffffffff16021790555050565b606060008060008073ffffffffffffffffffffffffffffffffffffffff168573ffffffffffffffffffffffffffffffffffffffff1614151515611e4157600080fd5b600560008673ffffffffffffffffffffffffffffffffffffffff1673ffffffffffffffffffffffffffffffffffffffff1681526020019081526020016000208054905060016007805490500303925082604051908082528060200260200182016040528015611ebf5781602001602082028038833980820191505090505b50935060009150600190505b600780549050811015611f6f578473ffffffffffffffffffffffffffffffffffffffff166003600083815260200190815260200160002060009054906101000a900473ffffffffffffffffffffffffffffffffffffffff1673ffffffffffffffffffffffffffffffffffffffff16141515611f6457808483815181101515611f4f57fe5b90602001906020020181815250506001820191505b806001019050611ecb565b505050919050565b611f7f612a02565b60008260018110158015611f9857506007805490508111155b1515611fa357600080fd5b600073ffffffffffffffffffffffffffffffffffffffff166003600083815260200190815260200160002060009054906101000a900473ffffffffffffffffffffffffffffffffffffffff1673ffffffffffffffffffffffffffffffffffffffff161415151561201257600080fd5b60078481548110151561202157fe5b90600052602060002090600702019150816000015483600060078110151561204557fe5b602002018181525050816001015483600160078110151561206257fe5b602002018181525050816002015483600260078110151561207f57fe5b602002018181525050816003015483600360078110151561209c57fe5b60200201818152505081600401548360046007811015156120b957fe5b60200201818152505081600501548360056007811015156120d657fe5b60200201818152505081600601548360066007811015156120f357fe5b6020020181815250505050919050565b6000806000806000886001811015801561212257506007805490508111155b151561212d57600080fd5b600073ffffffffffffffffffffffffffffffffffffffff166003600083815260200190815260200160002060009054906101000a900473ffffffffffffffffffffffffffffffffffffffff1673ffffffffffffffffffffffffffffffffffffffff161415151561219c57600080fd5b88600181101580156121b357506007805490508111155b15156121be57600080fd5b600073ffffffffffffffffffffffffffffffffffffffff166003600083815260200190815260200160002060009054906101000a900473ffffffffffffffffffffffffffffffffffffffff1673ffffffffffffffffffffffffffffffffffffffff161415151561222d57600080fd5b8873ffffffffffffffffffffffffffffffffffffffff16600360008d815260200190815260200160002060009054906101000a900473ffffffffffffffffffffffffffffffffffffffff1673ffffffffffffffffffffffffffffffffffffffff1614151561229a57600080fd5b8773ffffffffffffffffffffffffffffffffffffffff16600360008c815260200190815260200160002060009054906101000a900473ffffffffffffffffffffffffffffffffffffffff1673ffffffffffffffffffffffffffffffffffffffff1614151561230757600080fd5b600260078b81548110151561231857fe5b90600052602060002090600702016006015411151561237c5760078a81548110151561234057fe5b906000526020600020906007020160000154955060078a81548110151561236357fe5b90600052602060002090600702016006015494506123e9565b6123b0600260078c81548110151561239057fe5b90600052602060002090600702016000015461299c90919063ffffffff16565b95506123e6600260078c8154811015156123c657fe5b90600052602060002090600702016006015461299c90919063ffffffff16565b94505b60078b8154811015156123f857fe5b9060005260206000209060070201935061241f86856000015461297e90919063ffffffff16565b846000018190555061243f6001856001015461297e90919063ffffffff16565b846001018190555061245f6001856003015461297e90919063ffffffff16565b846003018190555061247e85856006015461297e90919063ffffffff16565b846006018190555060078a81548110151561249557fe5b906000526020600020906007020192506124bc8684600001546129b790919063ffffffff16565b83600001819055506124dc6001846002015461297e90919063ffffffff16565b83600201819055506124fb8584600601546129b790919063ffffffff16565b83600601819055507f60fbdeeeab956c3ee47224b822f4ba76b37a596c9b5339416fccd4a242dac6198b8b8b8b8a8a604051808781526020018681526020018573ffffffffffffffffffffffffffffffffffffffff1673ffffffffffffffffffffffffffffffffffffffff1681526020018473ffffffffffffffffffffffffffffffffffffffff1673ffffffffffffffffffffffffffffffffffffffff168152602001838152602001828152602001965050505050505060405180910390a1859650505050505050949350505050565b60008060008073ffffffffffffffffffffffffffffffffffffffff168673ffffffffffffffffffffffffffffffffffffffff161415156127045760066000858152602001908152602001600020549250600560008773ffffffffffffffffffffffffffffffffffffffff1673ffffffffffffffffffffffffffffffffffffffff168152602001908152602001600020915083828481548110151561266b57fe5b906000526020600020015414151561268257600080fd5b6001828054905003831415156126ea578160018380549050038154811015156126a757fe5b906000526020600020015490508082848154811015156126c357fe5b90600052602060002001819055508260066000838152602001908152602001600020819055505b612702600183805490506129b790919063ffffffff16565b505b846003600086815260200190815260200160002060006101000a81548173ffffffffffffffffffffffffffffffffffffffff021916908373ffffffffffffffffffffffffffffffffffffffff1602179055506000600560008773ffffffffffffffffffffffffffffffffffffffff1673ffffffffffffffffffffffffffffffffffffffff1681526020019081526020016000208054905014156127e7576000600460008773ffffffffffffffffffffffffffffffffffffffff1673ffffffffffffffffffffffffffffffffffffffff168152602001908152602001600020819055505b600560008673ffffffffffffffffffffffffffffffffffffffff1673ffffffffffffffffffffffffffffffffffffffff1681526020019081526020016000208490806001815401808255809150509060018203906000526020600020016000909192909190915055506128a36001600460008873ffffffffffffffffffffffffffffffffffffffff1673ffffffffffffffffffffffffffffffffffffffff1681526020019081526020016000205461297e90919063ffffffff16565b506128fa6001600560008873ffffffffffffffffffffffffffffffffffffffff1673ffffffffffffffffffffffffffffffffffffffff168152602001908152602001600020805490506129b790919063ffffffff16565b60066000868152602001908152602001600020819055508473ffffffffffffffffffffffffffffffffffffffff168673ffffffffffffffffffffffffffffffffffffffff167fddf252ad1be2c89b69c2b068fc378daa952ba7f163c4a11628f55a4df523b3ef866040518082815260200191505060405180910390a3505050505050565b600080828401905083811015151561299257fe5b8091505092915050565b60008082848115156129aa57fe5b0490508091505092915050565b60008282111515156129c557fe5b818303905092915050565b8154818355818111156129fd576007028160070283600052602060002091820191016129fc9190612a25565b5b505050565b60e060405190810160405280600790602082028038833980820191505090505090565b612a7991905b80821115612a755760008082016000905560018201600090556002820160009055600382016000905560048201600090556005820160009055600682016000905550600701612a2b565b5090565b905600a165627a7a72305820b75f409826544490aeac24b486a9e42a253a1d051edcf1e2afc5c56aaa6106f90029",
  "source": "pragma solidity ^0.4.23;\r\n\r\nimport \"./erc721.sol\";\r\nimport \"./SafeMath.sol\";\r\nimport \"./Random.sol\";\r\nimport \"./Database.sol\";\r\n\r\n\r\ncontract WarriorBase is ERC721\r\n{\r\n    \r\n    using SafeMath for uint256;\r\n    using SafeMath for uint64;\r\n\r\n    Random private randomContract;\r\n    Database private databaseContract;\r\n\r\n    /// @dev This emits when the token ownership changed \r\n    event Transfer(address indexed from, address indexed to, uint256 tokenId);\r\n    /// @dev This emits when user charged his warrior\r\n    event NewFund(uint _value);\r\n    /// @dev This emits when a new warrior is created(adopted) by user\r\n    event CreateWarrior(address _owner, uint _val);\r\n\r\n    event Consequence(uint winnerId,uint loserId, address winnerAddr,address loserAddr, uint valToTransfer, uint ceToTransfer);\r\n\r\n    mapping (uint => address) internal tokenApprovals;\r\n    \r\n    mapping (uint => address) internal tokenIndexToOwner;\r\n    \r\n    mapping (address => uint) internal ownerToTokenCount;\r\n\r\n    mapping (address => uint[]) internal ownerToTokenArray;\r\n\r\n    /// the id of the given token in owner's token list.\r\n    mapping (uint => uint) internal tokenIndexToOwnerIndex;\r\n    \r\n    string public constant name = \"SpartaxWarrior\";\r\n    string public constant symbol = \"SW\";\r\n\r\n    uint constant miniValue = 10 ** 16;\r\n\r\n    struct Warrior {\r\n        uint val;\r\n        uint winCount;\r\n        uint lossCount;\r\n        uint combo;\r\n        uint title;     /// title: default 0; primary coach 7 intermediate coach 8 advanced coach 9 master 10\r\n        uint prestige;\r\n        uint ce;    /// comat effectiveness\r\n    }\r\n\r\n    Warrior[] private WarriorList;\r\n\r\n    /// @dev check the given tokenId is in the tokenList and its owner is not null.\r\n    modifier tokenExist(uint256 _id) {\r\n        require(_id >= 1 && _id <= WarriorList.length);\r\n        require(tokenIndexToOwner[_id] != address(0));\r\n        _;\r\n    }\r\n\r\n    /// @dev construction method.\r\n    constructor(\r\n        address _randomContract,\r\n        address _databaseContract) public{\r\n\r\n        randomContract = Random(_randomContract);\r\n        databaseContract = Database(_databaseContract);\r\n\r\n        /// drop index 0\r\n        WarriorList.length += 1;\r\n\r\n        /// primary coach : value 0.01ether  comat effectiveness 10   title 7\r\n        uint newWarriorId = WarriorList.length;\r\n        WarriorList.length += 1;\r\n        Warrior storage war = WarriorList[newWarriorId];\r\n        war.val = miniValue;    /// 0.01 ether in Wei\r\n        war.winCount = 0;\r\n        war.lossCount = 0;\r\n        war.combo = 0;\r\n        war.title = 7;\r\n        war.prestige = 0;\r\n        war.ce = 10;\r\n        _transfer(0, msg.sender, newWarriorId);\r\n        databaseContract.addAccountEth(msg.sender, war.val);\r\n\r\n        /// primary coach : value 0.01ether  comat effectiveness 10   title 8\r\n        newWarriorId = WarriorList.length;\r\n        WarriorList.length += 1;\r\n        war = WarriorList[newWarriorId];\r\n        war.val = miniValue * 5; /// 0.05 ether in Wei\r\n        war.winCount = 0;\r\n        war.lossCount = 0;\r\n        war.combo = 0;\r\n        war.title = 8;\r\n        war.prestige = 0;\r\n        war.ce = 50;\r\n        _transfer(0, msg.sender, newWarriorId);\r\n        databaseContract.addAccountEth(msg.sender, war.val);\r\n\r\n        /// primary coach : value 0.01ether  comat effectiveness 10   title 9\r\n        newWarriorId = WarriorList.length;\r\n        WarriorList.length += 1;\r\n        war = WarriorList[newWarriorId];\r\n        war.val = miniValue * 10;   /// 0.1 ether in Wei\r\n        war.winCount = 0;\r\n        war.lossCount = 0;\r\n        war.combo = 0;\r\n        war.title = 9;\r\n        war.prestige = 0;\r\n        war.ce = 100;\r\n        _transfer(0, msg.sender, newWarriorId);\r\n        databaseContract.addAccountEth(msg.sender, war.val);\r\n\r\n        /// primary coach : value 0.01ether  comat effectiveness 10   title 10\r\n        newWarriorId = WarriorList.length;\r\n        WarriorList.length += 1;\r\n        war = WarriorList[newWarriorId];\r\n        war.val = miniValue * 50;   /// 0.5 ether in Wei;\r\n        war.winCount = 0;\r\n        war.lossCount = 0;\r\n        war.combo = 0;\r\n        war.title = 10;\r\n        war.prestige = 0;\r\n        war.ce = 500;\r\n        _transfer(0, msg.sender, newWarriorId);\r\n        databaseContract.addAccountEth(msg.sender, war.val);\r\n    }\r\n\r\n    /// @dev adopt a level 1 warrior (0.01 eth)\r\n    function adoptLvOne() \r\n        external\r\n        payable\r\n        returns(uint256)\r\n        {\r\n        require(msg.sender != address(0));\r\n        require(msg.value >= 0.01 ether);\r\n\r\n\r\n        uint newWarriorId = WarriorList.length;\r\n        WarriorList.length += 1;\r\n        Warrior storage war = WarriorList[newWarriorId];\r\n        war.val = msg.value;\r\n        war.winCount = 0;\r\n        war.lossCount = 0;\r\n        war.combo = 0;\r\n        war.title = 0;\r\n        war.prestige = 0;\r\n        war.ce = 10;\r\n        \r\n        _transfer(0,msg.sender, newWarriorId);\r\n        databaseContract.addAccountEth(msg.sender, msg.value);\r\n        CreateWarrior(msg.sender, msg.value);\r\n        return newWarriorId;\r\n    }\r\n\r\n    /// @dev adopt a level 2 warrior (0.05 eth)\r\n    function adoptLvTwo() \r\n        external\r\n        payable\r\n        returns(uint256)\r\n        {\r\n        require(msg.sender != address(0));\r\n        require(msg.value >= 0.05 ether);\r\n\r\n\r\n        uint newWarriorId = WarriorList.length;\r\n        WarriorList.length += 1;\r\n        Warrior storage war = WarriorList[newWarriorId];\r\n        war.val = msg.value;\r\n        war.winCount = 0;\r\n        war.lossCount = 0;\r\n        war.combo = 0;\r\n        war.title = 0;\r\n        war.prestige = 0;\r\n        war.ce = 50;\r\n        \r\n        _transfer(0,msg.sender, newWarriorId);\r\n        databaseContract.addAccountEth(msg.sender, msg.value);\r\n        CreateWarrior(msg.sender, msg.value);\r\n        return newWarriorId;\r\n    }\r\n\r\n    /// @dev adopt a level 3 warrior (0.1 eth)\r\n    function adoptLvThree() \r\n        external\r\n        payable\r\n        returns(uint256)\r\n        {\r\n        require(msg.sender != address(0));\r\n        require(msg.value >= 0.1 ether);\r\n\r\n\r\n        uint newWarriorId = WarriorList.length;\r\n        WarriorList.length += 1;\r\n        Warrior storage war = WarriorList[newWarriorId];\r\n        war.val = msg.value;\r\n        war.winCount = 0;\r\n        war.lossCount = 0;\r\n        war.combo = 0;\r\n        war.title = 0;\r\n        war.prestige = 0;\r\n        war.ce = 100;\r\n        \r\n        _transfer(0,msg.sender, newWarriorId);\r\n        databaseContract.addAccountEth(msg.sender, msg.value);\r\n        CreateWarrior(msg.sender, msg.value);\r\n        return newWarriorId;\r\n    }\r\n\r\n    /// @dev adopt a level 4 warrior (0.5 eth)\r\n    function adoptLvFour() \r\n        external\r\n        payable\r\n        returns(uint256)\r\n        {\r\n        require(msg.sender != address(0));\r\n        require(msg.value >= 0.5 ether);\r\n\r\n\r\n        uint newWarriorId = WarriorList.length;\r\n        WarriorList.length += 1;\r\n        Warrior storage war = WarriorList[newWarriorId];\r\n        war.val = msg.value;\r\n        war.winCount = 0;\r\n        war.lossCount = 0;\r\n        war.combo = 0;\r\n        war.title = 0;\r\n        war.prestige = 0;\r\n        war.ce = 500;\r\n        \r\n        _transfer(0,msg.sender, newWarriorId);\r\n        databaseContract.addAccountEth(msg.sender, msg.value);\r\n        CreateWarrior(msg.sender, msg.value);\r\n        return newWarriorId;\r\n    }\r\n\r\n    function setRandomAddr(address _randomContract) external {\r\n        randomContract = Random(_randomContract);\r\n    }\r\n\r\n    /// @dev return the total number of tokens in the game\r\n    function getTokenNum() external view returns(uint) {\r\n        return WarriorList.length - 1;\r\n    }\r\n\r\n    /// @dev return the owner address of the token(warrior)\r\n    function getTokenOwner(uint _id) external view tokenExist(_id) returns(address) {\r\n        require(tokenIndexToOwner[_id] != address(0));\r\n        return tokenIndexToOwner[_id];\r\n    }\r\n\r\n    /// @dev Ruturn token details by tokenId\r\n    function getToken(uint256 _id) external view tokenExist(_id) returns (uint[7] datas) {\r\n        Warrior storage warrior = WarriorList[_id];\r\n        datas[0] = warrior.val;\r\n        datas[1] = warrior.winCount;\r\n        datas[2] = warrior.lossCount;\r\n        datas[3] = warrior.combo;\r\n        datas[4] = warrior.title;\r\n        datas[5] = warrior.prestige;\r\n        datas[6] = warrior.ce;\r\n    }\r\n\r\n    /// @dev return all tokens owned by owner\r\n    function getOwnTokens(address _owner) external view returns(uint256[] tokens){\r\n        require(_owner != address(0));\r\n        uint256[] memory tokenArray = ownerToTokenArray[_owner];\r\n        uint256 length = (uint256)(tokenArray.length);\r\n\r\n        tokens = new uint256[](length);\r\n\r\n        for (uint256 i = 0; i < length; ++i) {\r\n            tokens[i] = tokenArray[i];\r\n        }\r\n    }\r\n\r\n    /// @dev return all tokens not belong to owner\r\n    function getEnemyTokens(address _owner) external view returns(uint[] tokens) {\r\n        require(_owner != address(0));\r\n\r\n        uint length = WarriorList.length - 1 - ownerToTokenArray[_owner].length;\r\n        tokens = new uint256[](length);\r\n        uint index = 0;\r\n        for (uint256 i = 1; i < WarriorList.length; ++i) {\r\n            if (tokenIndexToOwner[i] != _owner) {\r\n                tokens[index] = i;\r\n                index += 1;\r\n            }\r\n        }\r\n\r\n    }\r\n\r\n    /// @dev calculate the consequece of a finished battle\r\n    function consequence(\r\n        uint winnerId,\r\n        uint loserId, \r\n        address winnerAddr,\r\n        address loserAddr) tokenExist(winnerId) tokenExist(loserId) external returns(uint){\r\n        \r\n        require(tokenIndexToOwner[winnerId] == winnerAddr);\r\n        require(tokenIndexToOwner[loserId] == loserAddr);\r\n\r\n        uint valToTransfer;\r\n        uint ceToTransfer;\r\n\r\n        if (WarriorList[loserId].ce <= 2) {\r\n            valToTransfer = WarriorList[loserId].val;\r\n            ceToTransfer = WarriorList[loserId].ce;\r\n        } else {\r\n            valToTransfer = WarriorList[loserId].val.div(2);\r\n            ceToTransfer = WarriorList[loserId].ce.div(2);\r\n        }\r\n\r\n        var winner = WarriorList[winnerId];\r\n        winner.val = winner.val.add(valToTransfer);\r\n        winner.winCount = winner.winCount.add(1);\r\n        winner.combo = winner.combo.add(1);\r\n        winner.ce = winner.ce.add(ceToTransfer);\r\n\r\n        var loser = WarriorList[loserId];\r\n        loser.val = loser.val.sub(valToTransfer);\r\n        loser.lossCount = loser.lossCount.add(1);\r\n        loser.ce = loser.ce.sub(ceToTransfer);\r\n\r\n        emit Consequence(winnerId,loserId, winnerAddr, loserAddr, valToTransfer, ceToTransfer);\r\n        return valToTransfer;\r\n    }\r\n\r\n    /// @dev \"feed\" the token with msg.value \r\n    function feedWarrior(uint _id) tokenExist(_id) payable public returns(uint) {\r\n        require(tokenIndexToOwner[_id] == msg.sender);\r\n        \r\n        WarriorList[_id].val.add(msg.value);\r\n        databaseContract.addAccountEth(msg.sender, msg.value);\r\n        NewFund(this.balance);\r\n        return this.balance;\r\n    }\r\n\r\n    function addFund() payable public returns(uint) {\r\n        require(msg.value > 0);\r\n        NewFund(this.balance);\r\n        return this.balance;\r\n    }\r\n\r\n    function getBalance() external returns(uint){\r\n        return this.balance;\r\n    }\r\n\r\n    function _transfer(address _from, address _to, uint256 _tokenId) internal {\r\n        if (_from != address(0)){\r\n            \r\n            uint256 indexFrom = tokenIndexToOwnerIndex[_tokenId];\r\n            uint256[] storage tokenArray = ownerToTokenArray[_from];\r\n            require(tokenArray[indexFrom] == _tokenId);\r\n\r\n            if (indexFrom != tokenArray.length - 1){\r\n                uint256 lastTokenId = tokenArray[tokenArray.length - 1];\r\n                tokenArray[indexFrom] = lastTokenId;\r\n                tokenIndexToOwnerIndex[lastTokenId] = indexFrom;\r\n            }\r\n            tokenArray.length.sub(1);\r\n            }\r\n        \r\n        /// Transfer the token to address '_to'\r\n        tokenIndexToOwner[_tokenId] = _to;\r\n        if (ownerToTokenArray[_to].length == 0){\r\n            ownerToTokenCount[_to] = 0;\r\n        }\r\n        ownerToTokenArray[_to].push(_tokenId);\r\n        ownerToTokenCount[_to].add(1);\r\n        tokenIndexToOwnerIndex[_tokenId] = (uint256)(ownerToTokenArray[_to].length.sub(1));\r\n\r\n        Transfer(_from, _to, _tokenId);\r\n    }\r\n\r\n\r\n    ///@dev The function is to be called by former owner to tranfer the token to the new owner himself.\r\n    function transfer(address _to, uint256 _tokenId) external{\r\n        \r\n        require(msg.sender == tokenIndexToOwner[_tokenId]);\r\n        require(_to != 0x0);\r\n        \r\n        _transfer(msg.sender, _to, _tokenId);\r\n    }\r\n\r\n    function transferFrom(address _from, address _to, uint256 _tokenId) external{\r\n        // Safety check to prevent against an unexpected 0x0 default.\r\n        require(_to != address(0));\r\n        require(_to != address(this));\r\n        // Check for approval and valid ownership\r\n        //require(_approvedFor(msg.sender, _tokenId));\r\n        require(ownerOf(_tokenId) == _from);\r\n\r\n        // Reassign ownership (also clears pending approvals and emits Transfer event).\r\n        _transfer(_from, _to, _tokenId);\r\n    }\r\n    \r\n    /// @dev Required for ERC-721 compliance.\r\n    function totalSupply() public view returns (uint) {\r\n        return WarriorList.length - 1;\r\n    }\r\n\r\n    function balanceOf(address _owner) public view returns (uint256 balance) {\r\n        return ownerToTokenCount[_owner];\r\n    } \r\n    \r\n\r\n    function ownerOf(uint256 _tokenId) public view returns (address _owner) {\r\n        _owner = tokenIndexToOwner[_tokenId];\r\n        require(_owner != address(0));\r\n    }\r\n    \r\n    ///@dev The function is to be called by new owner to get the token from the former owner himself.\r\n    function takeOwnership(uint256 _tokenId) public {\r\n        require(tokenApprovals[_tokenId] == msg.sender);\r\n        address owner = ownerOf(_tokenId);\r\n        _transfer(owner, msg.sender, _tokenId);\r\n    }\r\n\r\n    ///@dev The function is to be called by former owner to assign the token ownership to the new owner.\r\n    function approve(address _to, uint256 _tokenId) external{\r\n        require(msg.sender == tokenIndexToOwner[_tokenId]);\r\n        tokenApprovals[_tokenId] = _to;\r\n        Approval(msg.sender, _to, _tokenId);\r\n    }\r\n\r\n    function destroyWeaponById(uint256 _tokenId) public {\r\n        require(msg.sender == tokenIndexToOwner[_tokenId]);\r\n        \r\n    }\r\n    \r\n    // ERC721\r\n    function supportsInterface(bytes4 _interfaceId) external view returns(bool) {\r\n    // ERC165 || ERC721 || ERC165^ERC721\r\n        return (_interfaceId == 0x01ffc9a7 || _interfaceId == 0x80ac58cd || _interfaceId == 0x8153916a) && (_interfaceId != 0xffffffff);\r\n    }\r\n\r\n}\r\n    ",
  "sourcePath": "D:\\BlockChain\\truffle-vue-master\\contracts\\WarriorBase.sol",
  "compiler": {
    "name": "solc",
    "version": "0.4.24+commit.e67f0147.Emscripten.clang"
  },
  "schemaVersion": "2.0.1",
  "updatedAt": "2018-07-03T16:57:49.556Z"
}